:020000040800F2
:1000000000C00020350400087903000885030008BB
:100010008B0300089103000897030008000000000C
:100020000000000000000000000000009D03000828
:10003000A903000800000000B5030008C103000880
:100040007D0400087D0400087D0400087D0400088C
:100050007D0400087D0400087D0400087D0400087C
:100060007D0400087D0400087D0400087D0400086C
:100070007D0400087D0400087D0400087D0400085C
:100080007D0400087D0400087D0400087D0400084C
:100090007D0400087D0400087D0400087D0400083C
:1000A0007D0400087D0400087D0400087D0400082C
:1000B0007D0400087D0400087D0400087D0400081C
:1000C0007D0400087D0400087D0400087D0400080C
:1000D0007D0400087D0400087D0400087D040008FC
:1000E0007D0400087D0400087D0400087D040008EC
:1000F0007D0400087D0400087D0400087D040008DC
:100100007D0400087D0400087D0400087D040008CB
:100110007D0400087D0400087D0400087D040008BB
:100120007D0400087D0400087D0400087D040008AB
:1001300000000000000000000000000000000000BF
:1001400000000000000000000000000000000000AF
:10015000000000000000000000000000000000009F
:10016000000000000000000000000000000000008F
:10017000000000000000000000000000000000007F
:10018000000000000000000000000000000000006F
:10019000000000000000000000000000000000005F
:1001A000000000000000000000000000000000004F
:1001B000000000000000000000000000000000003F
:1001C000000000000000000000000000000000002F
:1001D000000000000000000000000000000000001F
:0401E0005FF8E0F1F3
:1001E40010B5054C237833B9044B13B10448AFF36D
:1001F40000800123237010BD0400002000000000D3
:10020400EC04000808B5034B1BB103490348AFF3E2
:10021400008008BD0000000008000020EC04000875
:1002240080B400AF114B1B68104A43F00103136004
:1002340000BF0E4B1B6803F00203002BF9D00B4BDD
:100244009B690A4A43F001039361084B9B69074A7F
:1002540043F004039361054B9B69044A43F48043D0
:10026400936100BFBD4680BC704700BF00100240D0
:1002740080B400AF104BDB680F4A43F00403D36033
:100284000D4BDB680C4A43F00803D3600A4BDB6870
:10029400094A43F40053D360074B9B68064A43F072
:1002A40040039360044B9B68034A43F00403936048
:1002B40000BFBD4680BC70470038014080B400AF29
:1002C400074B5B68064A43F080035360044B5B684A
:1002D400034A43F03003536000BFBD4680BC7047FF
:1002E4000008014080B485B000AF78600B46FB7015
:1002F4000023FB730FE0FB7B7A6813441A780A4BE4
:100304005A6000BF084B1B6803F04003002BF9D070
:10031400FB7B0133FB73FA7BFB789A42EBD300BF80
:100324001437BD4680BC70470038014080B483B0A8
:1003340000AF786000BF7B685A1E7A60002BFAD148
:1003440000BF0C37BD4680BC7047000080B500AFCD
:10035400FFF766FFFFF78CFFFFF7B0FF0E2103489E
:10036400FFF7C0FF0248FFF7E1FFF7E704050008C5
:100374004019010080B400AF00BFBD4680BC704787
:1003840080B400AFFEE780B400AFFEE780B400AFF6
:10039400FEE780B400AFFEE780B400AF00BFBD4607
:1003A40080BC704780B400AF00BFBD4680BC7047BE
:1003B40080B400AF00BFBD4680BC704780B500AFBD
:1003C40000F05CF800BF80BD80B400AF154B1B6823
:1003D400144A43F001031360124B5A681149124B3B
:1003E40013404B600F4B1B680E4A23F0847323F4B5
:1003F400803313600B4B1B680A4A23F48023136079
:10040400084B5B68074A23F4FE035360054B4FF423
:100414001F029A60054B4FF000629A6000BFBD4610
:1004240080BC7047001002400000FFF800ED00E0BF
:10043400002103E00B4B5B58435004310A480B4B3B
:1004440042189A42F6D30A4A02E0002342F8043BD7
:10045400084B9A42F9D3FFF7B7FF00F021F8FFF7F2
:1004640075FF70471C0500080000002004000020F0
:100474000400002024000020FEE7000080B400AF48
:10048400054B1B781A46054B1B681344034A13603B
:1004940000BFBD4680BC7047000000202000002043
:1004A40070B500250C4E0D4CA41BA410A54209D117
:1004B40000F01AF800250A4E0A4CA41BA410A54209
:1004C40005D170BD56F8253098470135EEE756F84A
:1004D400253098470135F2E7140500081405000893
:1004E4001405000818050008F8B500BFF8BC08BCDE
:1004F4009E467047F8B500BFF8BC08BC9E467047DE
:1005040048616C6C6F20576F6C64210A0D00000009
:0405140009020008D0
:04051800E5010008F1
:04051C0001000000DA
:0400000508000435B6
:00000001FF
