:020000040800F2
:1000000000C00020310200087902000879020008CF
:100010007902000879020008790200080000000057
:10002000000000000000000000000000912800080F
:100030007902000800000000612A0008A92A0008CF
:1000400079020008790200087902000879020008A4
:100050007902000879020008790200087902000894
:100060007902000879020008790200087902000884
:100070007902000879020008790200087902000874
:100080007902000879020008790200087902000864
:100090007902000879020008790200087902000854
:1000A0007902000879020008790200087902000844
:1000B0007902000879020008790200087902000834
:1000C0007902000879020008790200087902000824
:1000D0007902000879020008790200087902000814
:1000E0007902000879020008790200087902000804
:1000F00079020008790200087902000879020008F4
:1001000079020008790200087902000879020008E3
:1001100079020008790200087902000879020008D3
:1001200079020008790200087902000879020008C3
:1001300000000000000000000000000000000000BF
:1001400000000000000000000000000000000000AF
:10015000000000000000000000000000000000009F
:10016000000000000000000000000000000000008F
:10017000000000000000000000000000000000007F
:10018000000000000000000000000000000000006F
:10019000000000000000000000000000000000005F
:1001A000000000000000000000000000000000004F
:1001B000000000000000000000000000000000003F
:1001C000000000000000000000000000000000002F
:1001D000000000000000000000000000000000001F
:0401E0005FF8E0F1F3
:1001F00010B5054C237833B9044B13B10448AFF361
:1002000000800123237010BD7C000020000000004E
:100210000C38000808B5034B1BB103490348AFF382
:10022000008008BD00000000800000200C3800089D
:10023000002103E00B4B5B58435004310A480B4B41
:1002400042189A42F6D30A4A02E0002342F8043BDD
:10025000084B9A42F9D303F013FA03F049FA03F07A
:1002600033F97047B0380008000000207C000020FF
:100270007C0000206C1B0020FEE7000080B485B0ED
:1002800000AFEFF30583BB60BB68002B0FD1EFF32A
:1002900010837B607B68002B09D1104B1B68022BFD
:1002A00009D1EFF311833B603B68002B03D06FF063
:1002B0000503FB600CE0094B1B68002B05D1074BC5
:1002C00001221A600023FB6002E04FF0FF33FB6065
:1002D000FB6818461437BD4680BC70479800002064
:1002E00080B584B000AFEFF30583BB60BB68002B23
:1002F0000FD1EFF310837B607B68002B09D1114B8A
:100300001B68022B09D1EFF311833B603B68002B84
:1003100003D06FF00503FB600EE00A4B1B68012B56
:1003200007D1084B02221A6001F064F80023FB6039
:1003300002E04FF0FF33FB60FB6818461037BD4604
:1003400080BD00BF9800002080B592B004AFF86077
:10035000B9607A6000237B61EFF305837B627B6A7F
:10036000002B40F09480EFF310833B623B6A002B3C
:1003700040F08D80484B1B68022B06D1EFF31183B0
:10038000FB61FB69002B40F08280FB68002B7ED074
:1003900080233B631823FB620023FB7607F11B03DA
:1003A0007B634FF0FF33BB627B68002B45D07B68DB
:1003B0001B68002B02D07B681B687B637B689B6992
:1003C000002B02D07B689B69FB62FB6A002B08D084
:1003D000FB6A382B05D87B685B6803F00103002BB0
:1003E00001D0002354E07B685B69002B03D07B685D
:1003F0005B699B083B637B689B68002B0ED07B6826
:10040000DB685B2B0AD97B681B69002B06D07B68F5
:100410005B69002B02D00123BB6210E07B689B6804
:10042000002B0CD17B68DB68002B08D17B681B6933
:10043000002B04D10023BB6201E00023BB62BB6A36
:10044000012B10D17B681B697A6892680292019334
:10045000FB6A0093BB683A6B796BF86800F002FEA8
:1004600003467B6113E0BB6A002B10D13B6B9AB251
:1004700007F114030193FB6A0093BB68796BF8687A
:1004800000F049FE0346012B01D000237B617B690C
:1004900018463837BD4680BD9800002080B586B02C
:1004A00000AF7860EFF305833B613B69002B0FD110
:1004B000EFF31083FB60FB68002B09D10D4B1B6829
:1004C000022B09D1EFF31183BB60BB68002B03D073
:1004D0006FF005037B6107E000237B617B68002BE5
:1004E00002D0786800F052FF7B6918461837BD4685
:1004F00080BD00BF9800002080B485B000AFF860D8
:10050000B9607A60FB68064A1A60BB68054A1A60DF
:100510007B6880221A6000BF1437BD4680BC7047DC
:100520009C000020F800002080B485B000AFF86087
:10053000B9607A60FB68074A1A60BB68064A1A60AD
:100540007B684FF480721A6000BF1437BD4680BCD0
:10055000704700BFF80200205403002080B483B02D
:1005600000AF78607B6803F108027B685A607B68A3
:100570004FF0FF329A607B6803F108027B68DA6013
:100580007B6803F108027B681A617B6800221A60AD
:1005900000BF0C37BD4680BC704780B483B000AF4D
:1005A00078607B6800221A6100BF0C37BD4680BCB2
:1005B000704780B485B000AF786039607B685B6855
:1005C000FB603B68FA685A60FB689A683B689A600F
:1005D000FB689B683A685A60FB683A689A603B68B7
:1005E0007A681A617B681B685A1C7B681A6000BFB6
:1005F0001437BD4680BC704780B485B000AF7860CA
:1006000039603B681B68BB60BB68B3F1FF3F03D137
:100610007B681B69FB600CE07B680833FB6002E0D1
:10062000FB685B68FB60FB685B681B68BA689A42A2
:10063000F6D2FB685A683B685A603B685B683A6868
:100640009A603B68FA689A60FB683A685A603B684F
:100650007A681A617B681B685A1C7B681A6000BF45
:100660001437BD4680BC704780B485B000AF786059
:100670007B681B69FB607B685B687A6892689A603C
:100680007B689B687A6852685A60FB685B687A6826
:100690009A4203D17B689A68FB685A607B680022A3
:1006A0001A61FB681B685A1EFB681A60FB681B68AE
:1006B00018461437BD4680BC7047000080B584B032
:1006C00000AF786039607B68FB60FB68002B09D164
:1006D0004FF0500383F31188BFF36F8FBFF34F8F39
:1006E000BB60FEE702F068F9FB681A68FB68DB6B29
:1006F000F968096C01FB03F31A44FB685A60FB6854
:1007000000229A63FB681A68FB689A60FB681A68A3
:10071000FB68DB6B013BF968096C01FB03F31A44CE
:10072000FB68DA60FB68FF2283F84420FB68FF2245
:1007300083F845203B68002B14D1FB681B69002B14
:100740001AD0FB681033184601F0D8F80346002B86
:1007500012D00D4B4FF080521A60BFF34F8FBFF392
:100760006F8F09E0FB6810331846FFF7F7FEFB6850
:1007700024331846FFF7F2FE02F04CF90123184625
:100780001037BD4680BD00BF04ED00E080B58EB0DF
:1007900002AFF860B9607A603B60FB68002B09D15A
:1007A0004FF0500383F31188BFF36F8FBFF34F8F68
:1007B000BB62FEE73B68002B09D14FF0500383F387
:1007C0001188BFF36F8FBFF34F8F7B62FEE77B68AB
:1007D000002B02D0BB68002B01D0012300E00023D6
:1007E000002B09D14FF0500383F31188BFF36F8FB3
:1007F000BFF34F8F3B62FEE77B68002B02D1BB68E3
:10080000002B01D1012300E00023002B09D14FF080
:10081000500383F31188BFF36F8FBFF34F8FFB61DA
:10082000FEE750237B617B69502B09D04FF05003CA
:1008300083F31188BFF36F8FBFF34F8FBB61FEE768
:100840003B68FB62FB6A002B0DD0FB6A012283F838
:10085000462097F83820FB6A009313467A68B968F7
:10086000F86800F005F8FB6A18463037BD4680BDD1
:1008700080B584B000AFF860B9607A60FB70BB6887
:10088000002B03D1BB69BA691A6002E0BB697A68C0
:100890001A60BB69FA68DA63BB69BA681A64012135
:1008A000B869FFF70BFFBB69FA7883F84C2000BFEB
:1008B0001037BD4680BD000080B58EB000AFF86037
:1008C000B9607A603B6000237B63FB683B633B6BF2
:1008D000002B09D14FF0500383F31188BFF36F8FC2
:1008E000BFF34F8FBB62FEE7BB68002B03D13B6BAE
:1008F0001B6C002B01D1012300E00023002B09D148
:100900004FF0500383F31188BFF36F8FBFF34F8F06
:100910007B62FEE73B68022B03D13B6BDB6B012B59
:1009200001D1012300E00023002B09D14FF0500337
:1009300083F31188BFF36F8FBFF34F8F3B62FEE7E6
:1009400001F096F90346002B02D17B68002B01D100
:10095000012300E00023002B09D14FF0500383F363
:100960001188BFF36F8FBFF34F8FFB61FEE702F07B
:1009700023F83B6B9A6B3B6BDB6B9A4202D33B6871
:10098000022B29D13A68B968386B00F0FFF9F86298
:100990003B6B5B6A002B10D03B6B2433184600F096
:1009A000ADFF0346002B13D03F4B4FF080521A602F
:1009B000BFF34F8FBFF36F8F0AE0FB6A002B07D0A6
:1009C000394B4FF080521A60BFF34F8FBFF36F8FD8
:1009D00002F020F8012363E07B68002B03D102F0D2
:1009E00019F800235CE07B6B002B06D107F11403A0
:1009F000184600F0E5FF01237B6302F00BF800F0DE
:100A00005DFD01F0D9FF3B6B93F844305BB2B3F16D
:100A1000FF3F03D13B6B002283F844203B6B93F8EC
:100A200045305BB2B3F1FF3F03D13B6B002283F84B
:100A3000452001F0EFFF3A1D07F114031146184657
:100A400000F0D4FF0346002B24D1386B00F096FA57
:100A50000346002B18D03B6B10337A6811461846BA
:100A600000F0FEFE386B00F021FA00F035FD034681
:100A7000002B7FF47CAF0C4B4FF080521A60BFF319
:100A80004F8FBFF36F8F72E7386B00F00FFA00F0F3
:100A900023FD6CE7386B00F009FA00F01DFD002320
:100AA00018463837BD4680BD04ED00E080B58EB0F5
:100AB00000AFF860B9607A603B60FB683B633B6BFA
:100AC000002B09D14FF0500383F31188BFF36F8FD0
:100AD000BFF34F8F7B62FEE7BB68002B03D13B6BFC
:100AE0001B6C002B01D1012300E00023002B09D156
:100AF0004FF0500383F31188BFF36F8FBFF34F8F15
:100B00003B62FEE73B68022B03D13B6BDB6B012BA7
:100B100001D1012300E00023002B09D14FF0500345
:100B200083F31188BFF36F8FBFF34F8FFB61FEE735
:100B300001F0FCFFEFF311824FF0500383F31188B3
:100B4000BFF36F8FBFF34F8FBA617B61BB69FB62ED
:100B50003B6B9A6B3B6BDB6B9A4202D33B68022B7D
:100B60002CD13B6B93F8453087F82B303A68B96845
:100B7000386B00F00BF997F92B30B3F1FF3F12D12E
:100B80003B6B5B6A002B16D03B6B2433184600F09E
:100B9000B5FE0346002B0ED07B68002B0BD07B6884
:100BA00001221A6007E097F82B300133DBB25AB20A
:100BB0003B6B83F8452001237B6301E000237B63CB
:100BC000FB6A3B613B6983F311887B6B18463837BE
:100BD000BD4680BD80B58CB000AFF860B9607A606A
:100BE0000023FB62FB68BB62BB6A002B09D14FF09C
:100BF000500383F31188BFF36F8FBFF34F8F3B62B6
:100C0000FEE7BB68002B03D1BB6A1B6C002B01D134
:100C1000012300E00023002B09D14FF0500383F3A0
:100C20001188BFF36F8FBFF34F8FFB61FEE701F0B9
:100C30001FF80346002B02D17B68002B01D1012352
:100C400000E00023002B09D14FF0500383F31188FB
:100C5000BFF36F8FBFF34F8FBB61FEE701F0ACFEB8
:100C6000BB6A9B6B7B627B6A002B1FD0B968B86A3A
:100C700000F0F6F87B6A5A1EBB6A9A63BB6A1B696E
:100C8000002B0FD0BB6A1033184600F037FE034626
:100C9000002B07D03C4B4FF080521A60BFF34F8FB0
:100CA000BFF36F8F01F0B6FE012369E07B68002B74
:100CB00003D101F0AFFE002362E0FB6A002B06D1F6
:100CC00007F11003184600F07BFE0123FB6201F0E0
:100CD000A1FE00F0F3FB01F06FFEBB6A93F8443015
:100CE0005BB2B3F1FF3F03D1BB6A002283F844201B
:100CF000BB6A93F845305BB2B3F1FF3F03D1BB6AE7
:100D0000002283F8452001F085FE3A1D07F110030B
:100D10001146184600F06AFE0346002B23D1B86A3C
:100D200000F016F90346002B17D0BB6A24337A680B
:100D30001146184600F094FDB86A00F0B7F800F0CC
:100D4000CBFB0346002B89D10F4B4FF080521A602A
:100D5000BFF34F8FBFF36F8F80E7B86A00F0A6F83C
:100D600000F0BAFB7AE7B86A00F0A0F800F0B4FB34
:100D7000B86A00F0EDF80346002B3FF46FAF002394
:100D800018463037BD4680BD04ED00E080B586B022
:100D900000AFF860B9607A6000237B61FB689B6BF1
:100DA0003B61FB681B6C002B0DD1FB681B68002BA3
:100DB0004DD1FB685B68184600F078FF7861FB68EE
:100DC00000225A6043E07B68002B19D1FB689868C9
:100DD000FB681B6C1A46B96802F0B6FCFB689A689F
:100DE000FB681B6C1A44FB689A60FB689A68FB6896
:100DF0005B689A422BD3FB681A68FB689A6026E00E
:100E0000FB68D868FB681B6C1A46B96802F09CFC4A
:100E1000FB68DA68FB681B6C5B421A44FB68DA60AB
:100E2000FB68DA68FB681B689A4207D2FB685A685D
:100E3000FB681B6C5B421A44FB68DA607B68022B20
:100E400005D13B69002B02D03B69013B3B613B690B
:100E50005A1CFB689A637B6918461837BD4680BDEB
:100E600080B582B000AF786039607B681B6C002B66
:100E700018D07B68DA687B681B6C1A447B68DA6080
:100E80007B68DA687B685B689A4203D37B681A6880
:100E90007B68DA607B68D9687B681B6C1A463868A7
:100EA00002F052FC00BF0837BD4680BD80B584B05B
:100EB00000AF786001F080FD7B6893F84530FB73EC
:100EC00011E07B685B6A002B12D07B6824331846E4
:100ED00000F014FD0346002B01D000F0E7FDFB7B82
:100EE000013BDBB2FB7397F90F30002BE9DC00E02C
:100EF00000BF7B68FF2283F8452001F08BFD01F0E5
:100F00005BFD7B6893F84430BB7311E07B681B6921
:100F1000002B12D07B681033184600F0EFFC03461C
:100F2000002B01D000F0C2FDBB7B013BDBB2BB73E9
:100F300097F90E30002BE9DC00E000BF7B68FF2250
:100F400083F8442001F066FD00BF1037BD4680BD28
:100F500080B584B000AF786001F02EFD7B689B6B9C
:100F6000002B02D10123FB6001E00023FB6001F0B4
:100F700051FDFB6818461037BD4680BD80B584B072
:100F800000AF786001F018FD7B689A6B7B68DB6BC3
:100F90009A4202D10123FB6001E00023FB6001F0D3
:100FA00039FDFB6818461037BD4680BD80B485B05A
:100FB00000AF786039600023FB6014E00E4AFB68E4
:100FC00052F83330002B0BD10B49FB683A6841F8DB
:100FD0003320094AFB68DB0013447A685A6005E055
:100FE000FB680133FB60FB68072BE7D900BF1437B0
:100FF000BD4680BC704700BF2C1B002080B586B06A
:1010000000AFF860B9607A60FB687B6101F0D4FCE6
:101010007B6993F844305BB2B3F1FF3F03D17B6946
:10102000002283F844207B6993F845305BB2B3F12A
:10103000FF3F03D17B69002283F8452001F0EAFCE1
:101040007B699B6B002B06D17B6924337A68B96876
:10105000184600F029FC7869FFF728FF00BF183711
:10106000BD4680BD80B58EB004AFF860B9607A60CF
:101070003B607B6B002B09D14FF0500383F3118849
:10108000BFF36F8FBFF34F8F3B62FEE7BB6B002B4D
:1010900009D14FF0500383F31188BFF36F8FBFF373
:1010A0004F8FFB61FEE75C233B613B695C2B09D002
:1010B0004FF0500383F31188BFF36F8FBFF34F8F4F
:1010C000BB61FEE7BB6B002B1ED07B6B002B1BD0E4
:1010D000BB6B7B627B6A7A6B1A637B6A022283F842
:1010E0005920002303937B6A029307F114030193B1
:1010F0003B6B00933B687A68B968F86800F050F879
:10110000786A00F0D3F801E000237B617B69184620
:101110002837BD4680BD80B58CB004AFF860B9609B
:101120003B601346FB80FB889B00184601F088F962
:1011300078617B69002B0ED05C2001F081F9F861A9
:10114000FB69002B03D0FB697A691A6305E07869B3
:1011500001F038FA01E00023FB61FB69002B17D096
:10116000FB69002283F85920FA8800230393FB6966
:101170000293FB6A0193BB6A00933B68B968F86805
:1011800000F00EF8F86900F091F80123BB6102E06D
:101190004FF0FF33BB61BB6918462037BD4680BDA9
:1011A00080B588B000AFF860B9607A603B603B6B97
:1011B000186B7B689B001A46A52102F0D0FA3B6BA6
:1011C0001A6B7B6803F18043013B9B001344BB61B6
:1011D000BB6923F00703BB61BB6903F00703002B66
:1011E00009D04FF0500383F31188BFF36F8FBFF323
:1011F0004F8F7B61FEE70023FB6112E0BA68FB6959
:10120000134419783A6BFB69134434330A461A7055
:10121000BA68FB6913441B78002B06D0FB690133C5
:10122000FB61FB690F2BE9D900E000BF3B6B00229B
:1012300083F84320BB6A372B01D93723BB623B6B52
:10124000BA6ADA623B6BBA6ADA643B6B00221A65EF
:101250003B6B04331846FFF7A0F93B6B1833184675
:10126000FFF79BF93B6B3A6B1A61BB6AC3F138021B
:101270003B6B9A613B6B3A6B5A623B6B00225A653F
:101280003B6B002283F858203A68F968B86901F08E
:10129000ABFA02463B6B1A60FB6A002B02D0FB6A7A
:1012A0003A6B1A6000BF2037BD4680BD80B582B062
:1012B00000AF786001F080FB2D4B1B6801332C4A96
:1012C00013602C4B1B68002B09D12A4A7B681360E2
:1012D000274B1B68012B10D100F00CFC0DE0264BB6
:1012E0001B68002B09D1234B1B68DA6A7B68DB6A19
:1012F0009A4202D81F4A7B681360204B1B68013357
:101300001E4A13601D4B1A687B685A647B68DA6A50
:101310001B4B1B689A4203D97B68DB6A184A13602F
:101320007B68DA6A13469B0013449B00154A1A44F3
:101330007B68043319461046FFF73BF901F06AFB5E
:101340000D4B1B68002B0ED00A4B1B68DA6A7B68BA
:10135000DB6A9A4207D20C4B4FF080521A60BFF3FF
:101360004F8FBFF36F8F00BF0837BD4680BD00BFF2
:10137000280C002054070020340C0020440C0020CE
:10138000300C00205807002004ED00E080B584B048
:1013900000AF78600023FB607B68002B16D0134BF6
:1013A0001B68002B09D04FF0500383F31188BFF363
:1013B0006F8FBFF34F8FBB60FEE700F07FF8002117
:1013C000786800F0DFFC00F087F8F860FB68002B1D
:1013D00007D1074B4FF080521A60BFF34F8FBFF316
:1013E0006F8F00BF1037BD4680BD00BF500C00207E
:1013F00004ED00E080B58AB004AF0023BB60002399
:101400007B603A46391D07F108031846FFF774F868
:1014100039687B68BA680292019300230093002325
:101420000A4620492048FFF71DFE02461F4B1A605E
:101430001E4B1B68002B02D001237B6101E00023BF
:101440007B617B69012B02D100F0F0FC78617B6944
:10145000012B15D14FF0500383F31188BFF36F8F29
:10146000BFF34F8F3B61124B4FF0FF321A60114BAD
:1014700001221A60104B00221A6001F02DFA0DE0D3
:101480007B69B3F1FF3F09D14FF0500383F311881B
:10149000BFF36F8FBFF34F8FFB60FEE700BF1837BE
:1014A000BD4680BD24380008C51A00084C0C002039
:1014B000480C0020340C00202C0C002080B400AF1D
:1014C000044B1B680133034A136000BFBD4680BC58
:1014D000704700BF500C002080B584B000AF0023DF
:1014E000FB600023BB60414B1B68002B09D14FF010
:1014F000500383F31188BFF36F8FBFF34F8F3B60AF
:10150000FEE701F059FA394B1B68013B374A13607B
:10151000364B1B68002B62D1354B1B68002B5ED00D
:101520002FE0344BDB68DB68FB60FB681833184640
:10153000FFF79AF8FB6804331846FFF795F8FB6845
:10154000DA6A2D4B1B689A4203D9FB68DB6A2A4A88
:101550001360FB68DA6A13469B0013449B00274A1A
:101560001A44FB68043319461046FFF722F8FB685B
:10157000DA6A234B1B68DB6A9A4202D3214B0122B1
:101580001A601C4B1B68002BCBD1FB68002B01D0D1
:1015900000F04AFB1C4B1B687B607B68002B10D063
:1015A00000F044F80346002B02D0164B01221A60CB
:1015B0007B68013B7B607B68002BF1D1124B0022E2
:1015C0001A60104B1B68002B09D00123BB600F4B26
:1015D0004FF080521A60BFF34F8FBFF36F8F01F04F
:1015E00019FABB6818461037BD4680BD500C002064
:1015F000280C0020E80B0020300C002058070020A9
:10160000540700203C0C0020380C002004ED00E0C2
:1016100080B483B000AF044B1B687B607B681846C6
:101620000C37BD4680BC70472C0C002080B586B0BE
:1016300000AF00237B61514B1B68002B40F08D8075
:101640004F4B1B6801333B614D4A3B6913603B695B
:10165000002B1FD14B4B1B681B68002B09D04FF090
:10166000500383F31188BFF36F8FBFF34F8F3B603D
:10167000FEE7444B1B68FB60434B1B68414A136009
:10168000414AFB681360414B1B6801333F4A1360BA
:1016900000F0CAFA3E4B1B683A699A424ED3394B66
:1016A0001B681B68002B01D1012300E00023002BE5
:1016B00004D0374B4FF0FF321A603FE0314B1B68CC
:1016C000DB68DB68BB60BB685B687B603A697B6832
:1016D0009A4203D22E4A7B6813602FE0BB68043322
:1016E0001846FEF7C1FFBB689B6A002B04D0BB689D
:1016F00018331846FEF7B8FFBB68DA6A254B1B683B
:101700009A4203D9BB68DB6A224A1360BB68DA6A73
:1017100013469B0013449B001F4A1A44BB680433C2
:1017200019461046FEF745FFBB68DA6A1B4B1B687B
:10173000DB6A9A42B3D301237B61B0E7174B1B6886
:10174000DA6A154913469B0013449B000B441B683F
:10175000012B07D901237B6104E0114B1B68013386
:101760000F4A13600F4B1B68002B01D001237B61D4
:101770007B6918461837BD4680BD00BF500C00205D
:101780002C0C0020E00B0020E40B0020400C00207B
:10179000480C0020300C002058070020540700207F
:1017A000380C00203C0C002080B485B000AF274BE3
:1017B0001B68002B03D0264B01221A6040E0244B0B
:1017C00000221A60234B1B68FB600FE0FB68002BB4
:1017D00009D14FF0500383F31188BFF36F8FBFF32C
:1017E0004F8F7B60FEE7FB68013BFB601A49FA689C
:1017F00013469B0013449B000B441B68002BE5D051
:10180000FA6813469B0013449B00134A1344BB60C1
:10181000BB685B685A68BB685A60BB685A68BB683B
:1018200008339A4204D1BB685B685A68BB685A6047
:10183000BB685B68DB68094A1360064AFB68136093
:1018400000BF1437BD4680BC704700BF500C00205D
:101850003C0C0020300C00205807002054070020CA
:1018600080B584B000AF786039607B68002B09D107
:101870004FF0500383F31188BFF36F8FBFF34F8F87
:10188000FB60FEE7074B1B68183319467868FEF7C4
:10189000B3FE0121386800F075FA00BF1037BD466D
:1018A00080BD00BF5407002080B586B000AFF8604F
:1018B000B9607A60FB68002B09D14FF0500383F3C5
:1018C0001188BFF36F8FBFF34F8F7B61FEE70A4B29
:1018D0001B6818331946F868FEF76BFE7B68002B0F
:1018E00002D04FF0FF33BB607968B86800F04AFA65
:1018F00000BF1837BD4680BD5407002080B586B0B4
:1019000000AF78607B68DB68DB683B613B69002B7C
:1019100009D14FF0500383F31188BFF36F8FBFF3EA
:101920004F8FFB60FEE73B6918331846FEF79CFEBD
:101930001D4B1B68002B1DD13B6904331846FEF775
:1019400093FE3B69DA6A194B1B689A4203D93B69DB
:10195000DB6A164A13603B69DA6A13469B0013443C
:101960009B00134A1A443B69043319461046FEF79C
:1019700020FE05E03B69183319460E48FEF719FEB4
:101980003B69DA6A0C4B1B68DB6A9A4205D9012372
:101990007B610A4B01221A6001E000237B617B69B5
:1019A00018461837BD4680BD500C0020300C002072
:1019B00058070020E80B0020540700203C0C0020B2
:1019C00080B483B000AF7860064B1A687B681A60F9
:1019D000054B1A687B685A6000BF0C37BD4680BC57
:1019E000704700BF400C00202C0C002080B588B050
:1019F00000AF786039607B68002B09D14FF050034D
:101A000083F31188BFF36F8FBFF34F8F3B61FEE706
:101A10003B68002B09D14FF0500383F31188BFF3CB
:101A20006F8FBFF34F8FFB60FEE700F0C5FF1D4BCC
:101A30001B68BB617B685B68BA69D31A7B613B68D2
:101A40001B68B3F1FF3F02D10023FB6123E07B68F9
:101A50001A68154B1B689A4207D07B685B68BA69A5
:101A60009A4202D30123FB6115E03B681B687A6947
:101A70009A420BD23B681A687B69D21A3B681A609B
:101A80007868FFF79DFF0023FB6104E03B680022BC
:101A90001A600123FB6100F0BDFFFB691846203787
:101AA000BD4680BD2C0C0020400C002080B400AF4F
:101AB000034B01221A6000BFBD4680BC704700BFC7
:101AC0003C0C002080B582B000AF786000F052F886
:101AD000064B1B68012BF9D9054B4FF080521A6059
:101AE000BFF34F8FBFF36F8FF0E700BF58070020A1
:101AF00004ED00E080B582B000AF00237B600CE015
:101B00007A6813469B0013449B00124A13441846FC
:101B1000FEF724FD7B6801337B607B68372BEFD9B0
:101B20000D48FEF71BFD0D48FEF718FD0C48FEF7AB
:101B300015FD0C48FEF712FD0B48FEF70FFD0B4B91
:101B4000054A1A600A4B054A1A6000BF0837BD46AD
:101B500080BD00BF58070020B80B0020CC0B002030
:101B6000E80B0020FC0B0020140C0020E00B0020F0
:101B7000E40B002080B582B000AF19E000F01CFF3C
:101B80000F4BDB68DB687B607B6804331846FEF72D
:101B90006BFD0C4B1B68013B0A4A13600A4B1B6828
:101BA000013B094A136000F035FF786800F00EF839
:101BB000054B1B68002BE1D100BF0837BD4680BD37
:101BC000FC0B0020280C0020100C002080B584B0F5
:101BD00000AF78607B6893F85930002B08D17B68A0
:101BE0001B6B184600F0EEFC786800F0EBFC17E089
:101BF0007B6893F85930012B03D1786800F0E2FC40
:101C00000EE07B6893F85930022B09D04FF0500357
:101C100083F31188BFF36F8FBFF34F8FFB60FEE735
:101C200000BF1037BD4680BD80B483B000AF0E4BFF
:101C30001B681B68002B01D1012300E00023002B4F
:101C400004D00A4B4FF0FF321A6008E0064B1B68C5
:101C5000DB68DB687B607B685B68044A136000BFFD
:101C60000C37BD4680BC7047E00B0020480C0020BC
:101C700080B483B000AF0B4B1B68002B02D1012353
:101C80007B6008E0084B1B68002B02D102237B60BD
:101C900001E000237B607B6818460C37BD4680BCA2
:101CA000704700BF340C0020500C002080B586B077
:101CB00000AF78607B683B6100237B617B68002B11
:101CC00054D02D4B1B683A699A4209D04FF050030B
:101CD00083F31188BFF36F8FBFF34F8FFB60FEE775
:101CE0003B691B6D002B09D14FF0500383F3118822
:101CF000BFF36F8FBFF34F8FBB60FEE73B691B6D78
:101D00005A1E3B691A653B69DA6A3B69DB6C9A4289
:101D10002CD03B691B6D002B28D13B69043318463E
:101D2000FEF7A2FC3B69DA6C3B69DA623B69DB6A6D
:101D3000C3F138023B699A613B69DA6A0F4B1B6851
:101D40009A4203D93B69DB6A0C4A13603B69DA6A41
:101D500013469B0013449B00094A1A443B69043311
:101D600019461046FEF725FC01237B617B69184666
:101D70001837BD4680BD00BF54070020300C00203E
:101D80005807002080B584B000AF78603960214BDF
:101D90001B68FB60204B1B6804331846FEF764FC8D
:101DA0007B68B3F1FF3F0AD13B68002B07D01A4B89
:101DB0001B68043319461948FEF7FBFB26E0FA6856
:101DC0007B681344BB60144B1B68BA685A60BA68DE
:101DD000FB689A4209D2124B1A680F4B1B680433F6
:101DE00019461046FEF708FC10E00E4B1A680A4B25
:101DF0001B68043319461046FEF7FEFB0A4B1B68AE
:101E0000BA689A4202D2084ABB68136000BF103712
:101E1000BD4680BD2C0C002054070020140C00206F
:101E2000E40B0020E00B0020480C002080B58AB0B5
:101E300004AF00237B6100F0C3FA1C4B1B68002B2E
:101E400021D00023FB600023BB603A1D07F108018D
:101E500007F10C031846FEF767FB7968BB68FA6860
:101E6000029201930223009300230A46104911486D
:101E7000FFF7F8F80246104B1A600F4B1B68002B57
:101E800001D001237B617B69002B09D14FF0500306
:101E900083F31188BFF36F8FBFF34F8F3B61FEE772
:101EA0007B6918461837BD4680BD00BF840C0020F2
:101EB0002C380008D51F0008880C002080B58AB097
:101EC00000AFF860B9607A603B6000237B62FB681A
:101ED000002B09D14FF0500383F31188BFF36F8FAC
:101EE000BFF34F8F3B62FEE7194B1B68002B2AD0D4
:101EF000BB683B617B687B61FB68BB61BB68052B92
:101F000018DCFFF7B5FE0346022B09D1104B186809
:101F100007F1100100233A6BFEF7CEFC786212E065
:101F20000B4B186807F1100100230022FEF7C4FCD8
:101F3000786208E0064B186807F1100100233A6840
:101F4000FEF7B4FD78627B6A18462837BD4680BD2F
:101F5000840C002080B588B002AF786039601C4BDB
:101F60001B68DB68DB687B617B6904331846FEF71E
:101F70007BFB7B69DB69012B21D17B699A697B68DB
:101F8000D1187B683A68786900F0C8F80346002BDE
:101F900015D00023009300237A6800217869FFF7A9
:101FA0008DFF38613B69002B09D14FF0500383F35B
:101FB0001188BFF36F8FBFF34F8FFB60FEE77B6924
:101FC0005B6A7869984700BF1837BD4680BD00BF7F
:101FD0007C0C002080B584B000AF786007F1080366
:101FE000184600F057F8F860BB681946F86800F02A
:101FF00003F800F0D5F8F1E780B584B000AF786061
:102000003960FFF75BFA07F10803184600F066F83D
:10201000F860BB68002B30D13B68002B0AD17A688E
:10202000FB689A4206D8FFF757FAF9687868FFF715
:1020300091FF24E03B68002B08D0134B1B681B6802
:10204000002B0CBF01230023DBB23B600F4B186851
:102050007A68FB68D31A3A681946FEF7CFFFFFF794
:102060003BFA0346002B0AD1094B4FF080521A600D
:10207000BFF34F8FBFF36F8F01E0FFF72DFA00BF63
:102080001037BD4680BD00BF800C0020840C0020AE
:1020900004ED00E080B485B000AF78600E4B1B68A3
:1020A0001B68002B0CBF01230023DBB21A467B68A0
:1020B0001A607B681B68002B05D1074B1B68DB6827
:1020C0001B68FB6001E00023FB60FB6818461437C7
:1020D000BD4680BC704700BF7C0C002080B584B03A
:1020E00000AF7860FFF794FAF8600B4B1B68FA6852
:1020F0009A4205D200F004F97B6801221A6002E0DE
:102100007B6800221A60044AFB681360FB6818466B
:102110001037BD4680BD00BF8C0C002080B586B056
:1021200000AFF860B9607A603B6000237B61FB68B8
:10213000BA685A60FB68FA681A61BA687B689A42A2
:1021400012D87A683B68D21AFB689B699A4202D31C
:1021500001237B611BE0104B1A68FB6804331946AE
:102160001046FEF749FA12E07A683B689A4206D2B6
:10217000BA683B689A4202D301237B6107E0074BB0
:102180001A68FB68043319461046FEF735FA7B6976
:1021900018461837BD4680BD800C00207C0C0020FE
:1021A00080B58EB002AF99E07B68002B17DA3B1D3B
:1021B0000433FB62FB6A002B09D14FF0500383F319
:1021C0001188BFF36F8FBFF34F8FFB61FEE7FB6A90
:1021D0001B68FA6A5068FA6A9268114698477B68E9
:1021E000002B7ADBFB68BB62BB6A5B69002B04D007
:1021F000BB6A04331846FEF737FA3B461846FFF72A
:102200006DFF78627B68092B68D801A252F823F031
:10221000392200083922000839220008DD2200088E
:1022200093220008C9220008392200083922000838
:10223000DD22000893220008BA68BB6A9B69D118A6
:10224000BB687A6AB86AFFF769FF0346002B45D07E
:10225000BB6A5B6AB86A9847BB6ADB69012B3DD1F0
:10226000BA68BB6A9B691A440023009300230021CB
:10227000B86AFFF723FE38623B6A002B2ED14FF07D
:10228000500383F31188BFF36F8FBFF34F8FBB6190
:10229000FEE7BA68BB6A9A61BB6A9B69002B09D1E9
:1022A0004FF0500383F31188BFF36F8FBFF34F8F4D
:1022B0007B61FEE7BB6A9A697B6AD1187B6A7A6A9E
:1022C000B86AFFF72BFF09E0BB6A93F82C30002BAC
:1022D00004D1B86A00F076F900E000BF074B1B6834
:1022E000391D00221846FEF775FC0346002B7FF4CB
:1022F0005BAF00BF3037BD4680BD00BF840C0020FF
:1023000080B588B002AF44E02B4B1B68DB681B68CC
:102310003B61294B1B68DB68DB68FB60FB680433AF
:102320001846FEF7A1F9FB685B6AF8689847FB68F6
:10233000DB69012B2DD1FB689B693A691344BB60B3
:10234000BA683B699A420ED9FB68BA685A60FB6862
:10235000FA681A61184B1A68FB680433194610466C
:10236000FEF74AF915E00023009300233A690021A3
:10237000F868FFF7A3FD78607B68002B09D14FF068
:10238000500383F31188BFF36F8FBFF34F8F3B6010
:10239000FEE7094B1B681B68002BB5D1064B1B6879
:1023A0007B61064B1B68044A1360044A7B69136017
:1023B00000BF1837BD4680BD7C0C0020800C00207B
:1023C00080B582B002AF00F0F7FA154B1B68002B06
:1023D00020D11448FEF7C2F81348FEF7BFF8134B9C
:1023E000104A1A60124B104A1A6000230093114BD6
:1023F000114A10210A20FEF7C9F90246084B1A605B
:10240000074B1B68002B05D0054B1B680B49184672
:10241000FEF7CCFD00F0FEFA00BFBD4680BD00BF58
:10242000840C0020540C0020680C00207C0C002040
:10243000800C0020300D0020900C00203438000863
:1024400080B58AB000AF78600023FB61FFF736F8F3
:10245000574B1B68002B01D100F00CF9554B1A6843
:102460007B681340002B40F08C807B68002B1CD0D5
:1024700008227B6813447B607B6803F00703002B12
:1024800013D07B6823F0070308337B607B6803F07D
:102490000703002B09D04FF0500383F31188BFF3DB
:1024A0006F8FBFF34F8F7B61FEE77B68002B68D097
:1024B000414B1B687A689A4263D8404B3B623F4B62
:1024C0001B687B6204E07B6A3B627B6A1B687B6201
:1024D0007B6A5B687A689A4203D97B6A1B68002B27
:1024E000F1D1334B1B687A6A9A424AD03B6A1B6827
:1024F00008221344FB617B6A1A683B6A1A607B6A94
:102500005A687B68D21A08235B009A421ED97A6AFD
:102510007B681344BB61BB6903F00703002B09D040
:102520004FF0500383F31188BFF36F8FBFF34F8FCA
:102530003B61FEE77B6A5A687B68D21ABB695A60C6
:102540007B6A7A685A60B86900F0F6F81A4B1A6824
:102550007B6A5B68D31A184A1360174B1A68184BCA
:102560001B689A4203D2144B1B68154A13607B6A9E
:102570005A68104B1B681A437B6A5A607B6A0022B8
:102580001A60FEF7A9FFFB6903F00703002B09D0CF
:102590004FF0500383F31188BFF36F8FBFF34F8F5A
:1025A000FB60FEE7FB6918462837BD4680BD00BFCB
:1025B00088190020941900208C190020801900200F
:1025C0009019002080B586B000AF78607B687B6191
:1025D0007B68002B46D008235B427A6913447B61F9
:1025E0007B693B613B695A68204B1B681340002B99
:1025F00009D14FF0500383F31188BFF36F8FBFF3FE
:102600004F8FFB60FEE73B691B68002B09D04FF042
:10261000500383F31188BFF36F8FBFF34F8FBB60FD
:10262000FEE73B695A68114B1B681340002B19D019
:102630003B691B68002B15D13B695A680B4B1B6823
:10264000DB431A403B695A60FEF738FF3B695A6822
:10265000074B1B681344064A1360386900F06CF896
:10266000FEF73AFF00BF1837BD4680BD9419002021
:102670008C19002080B485B000AF4FF44063BB607C
:10268000274BFB60FB6803F00703002B0CD0FB68B3
:102690000733FB60FB6823F00703FB60BA68FB6845
:1026A000D31A1F4A1344BB60FB687B601D4A7B68DA
:1026B00013601C4B00225A607B68BA681344FB60AD
:1026C0000822FB689B1AFB60FB6823F00703FB6092
:1026D000FB68154A1360144B1B6800225A60124BAA
:1026E0001B6800221A607B683B603B68FA68D21A5C
:1026F0003B685A600C4B1A683B681A603B685B6821
:102700000A4A13603B685B68094A1360094B4FF043
:1027100000421A6000BF1437BD4680BC704700BF3E
:10272000800D0020801900208819002090190020B9
:102730008C1900209419002080B485B000AF786017
:10274000274BFB6002E0FB681B68FB60FB681B68B3
:102750007A689A42F7D8FB68BB60FB685B68BA6826
:1027600013447A689A4208D1FB685A687B685B68B0
:102770001A44FB685A60FB687B607B68BB607B68BF
:102780005B68BA681A44FB681B689A4218D1FB68F8
:102790001A68144B1B689A420DD07B685A68FB6814
:1027A0001B685B681A447B685A60FB681B681A6880
:1027B0007B681A6008E00B4B1A687B681A6003E0BC
:1027C000FB681A687B681A60FA687B689A4202D0D4
:1027D000FB687A681A6000BF1437BD4680BC70473A
:1027E000801900208819002080B485B000AFF860FF
:1027F000B9607A60FB68043BFB60FB684FF0807255
:102800001A60FB68043BFB60BB6823F00102FB68B5
:102810001A60FB68043BFB60084AFB681A60FB68AF
:10282000143BFB607A68FB681A60FB68203BFB6026
:10283000FB6818461437BD4680BC70474128000825
:1028400080B485B000AF00237B60104B1B68B3F1F0
:10285000FF3F09D04FF0500383F31188BFF36F8F10
:10286000BFF34F8FFB60FEE74FF0500383F31188F7
:10287000BFF36F8FBFF34F8FBB6000BF7B68002B30
:10288000FCD000BF1437BD4680BC7047000000205C
:10289000074B19680868B0E8F00F80F30988BFF3A8
:1028A0006F8F4FF0000080F311884EF00D0E7047CF
:1028B0005407002000BF00BF06480068006880F38E
:1028C000088862B661B6BFF34F8FBFF36F8F00DF2A
:1028D00000BF00BF08ED00E080B584B000AF314B11
:1028E000FB60FB681B78DBB27B60FB68FF221A7021
:1028F000FB681B78DBB2FB70FB78DBB203F05003A4
:10290000DAB2294B1A70294B07221A6009E0274BCB
:102910001B68013B254A1360FB78DBB25B00DBB22E
:10292000FB70FB78DBB203F08003802BEFD01F4BF2
:102930001B68C3F10703042B09D04FF0500383F346
:102940001188BFF36F8FBFF34F8FBB60FEE7174B4C
:102950001B681B02154A1360144B1B6803F4E063E9
:10296000124A13607B68DAB2FB681A70104B1B685E
:102970000F4A43F4700313600D4B1B680C4A43F07D
:102980007043136000F0B0F80A4B00221A60FFF7A2
:1029900093FFFEF709FFFFF753FF00231846103798
:1029A000BD4680BD00E400E0981900209C1900207D
:1029B00020ED00E00000002080B483B000AF4FF0B5
:1029C000500383F31188BFF36F8FBFF34F8F7B608A
:1029D0000E4B1B6801330D4A13600C4B1B68012B17
:1029E0000ED10B4B1B68DBB2002B09D04FF050030C
:1029F00083F31188BFF36F8FBFF34F8F3B60FEE708
:102A000000BF0C37BD4680BC704700BF00000020EF
:102A100004ED00E080B483B000AF104B1B68002BC6
:102A200009D14FF0500383F31188BFF36F8FBFF3C9
:102A30004F8F7B60FEE7094B1B68013B074A136021
:102A4000064B1B68002B04D100233B603B6883F3DB
:102A5000118800BF0C37BD4680BC704700000020C5
:102A6000EFF30980BFF36F8F0D4B1A6820E9F00F69
:102A700010602DE908404FF0500080F31188FEF7F8
:102A800093FE4FF0000080F31188BDE808401968FC
:102A90000868B0E8F00F80F30988BFF36F8F7047C4
:102AA0005407002000BF00BF80B582B000AF4FF0D8
:102AB000500383F31188BFF36F8FBFF34F8F7B6099
:102AC000FEF7B4FD0346002B03D0064B4FF08052B7
:102AD0001A6000233B603B6883F3118800BF08370E
:102AE000BD4680BD04ED00E080B400AF0A4B00227B
:102AF0001A600A4B00221A60094B1B68094AA2FBA4
:102B000003235B0B084A013B1360034B07221A6047
:102B100000BFBD4680BC704710E000E018E000E058
:102B2000140000205917B7D114E000E080B485B03C
:102B300000AFEFF30583FB60FB680F2B13D9154A39
:102B4000FB6813441B78FB72134B1B78FA7A9A428A
:102B500009D24FF0500383F31188BFF36F8FBFF397
:102B60004F8F7B60FEE70D4B1B6803F4E0620C4B5C
:102B70001B689A4209D94FF0500383F31188BFF3C1
:102B80006F8FBFF34F8F3B60FEE700BF1437BD462A
:102B900080BC7047F0E300E0981900200CED00E0E5
:102BA0009C19002080B483B000AF7860164A7B681F
:102BB0001A607B68083300221A605A60C3F8072045
:102BC0007B68C0221A727B68F9225A727B68A42241
:102BD0009A727B68B022DA727B6899221A737B68DA
:102BE00092225A737B6882229A737B68F822DA7386
:102BF0007B6880221A747B6890225A747B6818461E
:102C00000C37BD4680BC70477438000880B483B070
:102C100000AF7860044A7B681A607B6818460C37FE
:102C2000BD4680BC704700BF7438000880B582B0D4
:102C300000AF78607868FFF7E9FF1421786800F04A
:102C400053FD7B6818460837BD4680BD80B483B00D
:102C500000AF7860074B9B69064A43F0010393611C
:102C6000054B4FF000725A6000BF0C37BD4680BC68
:102C7000704700BF001002400000014080B483B0E4
:102C800000AF7860044A7B681A607B6818460C378E
:102C9000BD4680BC704700BF8438000880B582B054
:102CA00000AF78607868FFF7E9FF4FF482717868C9
:102CB00000F01AFD7B6818460837BD4680BD00004D
:102CC00080B485B000AF7860084611461A460346C6
:102CD0007B800B467B7013463B70154A7B681A60FD
:102CE0007B687A889A807B687A789A717B683A7870
:102CF000DA717B683A7E1A727B683A7F9A727B68D7
:102D00000022A3F8F0200B4A07F1080392E8030021
:102D100083E803007B685D331A4607F1080303CBA1
:102D2000106051607B6818461437BD4680BC704700
:102D3000843800083C38000880B582B000AF786065
:102D4000054A7B681360786800F008F8012318468C
:102D50000837BD4680BD00BFA019002080B582B0F5
:102D600000AF78607B6893F8FA30DBB2022B14BFB7
:102D700001230023DBB2002B0BD00021786800F088
:102D80000BFA0021786800F0F7F97B68022283F8DB
:102D9000FA2000BF0837BD4680BD80B582B000AFC5
:102DA00078607B6893F8FA30DBB2042B14BF012300
:102DB0000023DBB2002B0BD00021786800F0ECF987
:102DC0000021786800F0D8F97B68042283F8FA20A3
:102DD00000BF0837BD4680BD80B582B000AF7860C7
:102DE0007B6893F8FA30DBB2032B14BF0123002376
:102DF000DBB2002B13D07B68002283F85A207B685B
:102E0000002283F85B207B68002283F85C2001218C
:102E1000786800F0C1F97B68032283F8FA2000BFCC
:102E20000837BD4680BD80B582B000AF78607B6852
:102E300093F8FA30DBB2032B0CBF01230023DBB283
:102E4000002B01D0002310E07868FFF7A6FF7B6815
:102E5000DB7ADBB2002B05D0786800F0B2F97B6832
:102E60000022DA727B681B7BDBB218460837BD464E
:102E700080BD80B586B000AFF860B9607A60FB684D
:102E80001B680C331B68F8689847034683F00103FE
:102E9000DBB2002B01D0002320E0BB68002B19D04F
:102EA0007B68002B16D0FB6893F85930DBB2073BE8
:102EB000FB757B681B78FA7D9A4202D27B68FA7DAB
:102EC0001A70FB681533591D7B681B781A46B86861
:102ED00000F03AFCFB6800221A73012318461837E9
:102EE000BD4680BD80B588B000AFF860B9601346BC
:102EF000FB710023BB834FF6FF737B83FB685D335D
:102F000008337B61FB790733FB74FB793C2B01D9D8
:102F1000002328E1FA7C7B8B1946F86800F0C3F99E
:102F200003467B83FB7C1A11BB8B591CB983194662
:102F30007B690B448E498A5C1A70FB7C03F00F029C
:102F4000BB8B591CB98319467B690B4488498A5C41
:102F50001A70FB6893F8EC207B8B1946F86800F038
:102F6000A2F903467B83FB6893F8EC301A11BB8B04
:102F7000591CB98319467B690B447D498A5C1A70D8
:102F8000FB6893F8EC3003F00F02BB8B591CB9833C
:102F900019467B690B4476498A5C1A70FB6893F882
:102FA000ED207B8B1946F86800F07DF903467B83A2
:102FB000FB6893F8ED301A11BB8B591CB983194685
:102FC0007B690B446A498A5C1A70FB6893F8ED30A0
:102FD00003F00F02BB8B591CB98319467B690B4464
:102FE00063498A5C1A70FB6893F8EE207B8B194664
:102FF000F86800F058F903467B83FB6893F8EE30DD
:103000001A11BB8B591CB98319467B690B4458496B
:103010008A5C1A70FB6893F8EE3003F00F02BB8BEA
:10302000591CB98319467B690B4451498A5C1A7053
:10303000FB6893F8EF207B8B1946F86800F033F9B2
:1030400003467B83FB6893F8EF301A11BB8B591C46
:10305000B98319467B690B4445498A5C1A70FB6841
:1030600093F8EF3003F00F02BB8B591CB98319465C
:103070007B690B443E498A5C1A700023FB77FA7F18
:10308000FB799A422BD2FB7FBA6813441A787B8B68
:103090001946F86800F007F903467B83FB7FBA689E
:1030A00013441B781A11BB8B591CB98319467B69D1
:1030B0000B442F498A5C1A70FB7FBA6813441B7853
:1030C00003F00F02BB8B591CB98319467B690B4473
:1030D00027498A5C1A70FB7F0133FB77CFE77B8B34
:1030E000DB437B837B8B1B1103F00F02BB8B591CD3
:1030F000B98319467B690B441D498A5C1A707B8B26
:1031000003F00F02BB8B591CB98319467B690B4432
:1031100017498A5C1A707B8B1B0B9BB21946BB8BC1
:103120005A1CBA831A467B691344114A525C1A70BE
:103130007B8B1B1203F00F02BB8B591CB983194602
:103140007B690B440A498A5C1A70BB8BDBB208337B
:10315000DAB2FB6883F8EB20F868FFF73DFE054A1A
:10316000FB681360012318462037BD4680BD00BFB1
:1031700004000020A019002080B582B000AF786064
:103180000B46FB707B68D3F8FC30FA781046984702
:1031900000BF0837BD4680BD80B483B000AF786003
:1031A0000B46FB7000BF0C37BD4680BC704780B437
:1031B00083B000AF78603C2318460C37BD4680BC16
:1031C000704780B584B000AF78604FF6FF73FB8125
:1031D00000237B737B6893F85930DBB27A7B9A4289
:1031E00034BF01230023DBB2002B0ED07B7B7A6837
:1031F00013445A7DFB891946786800F054F8034659
:10320000FB817B7B01337B73E4E7FB894FF2B802E0
:1032100093420CD07B68B3F8F0309BB201339AB282
:103220007B68A3F8F0207B6800221A7338E07B6883
:103230009A7D7B6883F8F2207B68DA7D7B6883F86F
:10324000F3207B681A7E7B6883F8F4207B685A7EC3
:103250007B6883F8F5207B6893F8F730002B0ED15C
:103260007B6893F8F230DAB27B6893F8F6309A42D2
:1032700005D07B6893F8F230DBB2FF2B01D101233C
:1032800000E00023002B0BD07B68B3F8F8309BB232
:1032900001339AB27B68A3F8F8207B6801221A7385
:1032A0001037BD4680BD80B483B000AF78600B4658
:1032B0007B8013467B707B885AB297F9013053406C
:1032C0005BB27B707B781B015AB297F90130534097
:1032D0005BB27B707B781B021AB27B881B121BB21D
:1032E00013431AB27B781B11DBB21BB253401AB2E4
:1032F0007B78DB001BB253401BB29BB218460C37E5
:10330000BD4680BC704780B483B000AF7860396040
:103310007B683A68C3F8FC2000BF0C37BD4680BC10
:103320007047000080B400AF1C4B1B681B4A43F081
:1033300001031360194B1B6803F00203002B0CBF41
:1033400001230023DBB2002B00D0F3E7134B9B6972
:10335000124A43F004039361104B9B690F4A43F0F8
:10336000080393610D4B9B690C4A43F01003936172
:103370000A4B9B69094A43F020039361074B9B6901
:10338000064A43F400639361044B9B69034A43F488
:103390008043936100BFBD4680BC7047001002406F
:1033A00080B400AF374B1B68364A43F00303136009
:1033B000344B1B68334A23F00C031360314B1B68FA
:1033C000304A43F0300313602E4B1B682D4A23F024
:1033D000C00313602C4B1B682B4A43F4401313604B
:1033E000294B1B68284A23F440031360264B1B68B3
:1033F000254A43F440531360234B1B68224A23F4AD
:1034000040431360214B1B68204A43F44073136010
:103410001E4B1B681D4A23F4406313601A4B5B6804
:10342000194A23F440635360174B5B68164A43F410
:1034300000635360144BDB68134A43F48063D3602A
:10344000124B5B68114A23F0030353600F4B5B6818
:103450000E4A43F0020353600C4BDB680B4A43F007
:103460000103D360094B1B68084A43F01003136043
:10347000064B1B68054A23F04003136000BFBD469E
:1034800080BC704700100140000C01400014014056
:1034900080B483B000AF0346FB71FB79002B06D0EC
:1034A000084B1B69074A43F00203136105E0054B13
:1034B0005B69044A43F00203536100BF0C37BD4609
:1034C00080BC70470014014080B500AF1E491F4802
:1034D000FFF719FF1E4B1F4A1A601D4B18229A61F5
:1034E0001B4B4FF400725A611B4B1C4A1A601A4B5B
:1034F00018229A61184B4FF400725A61184B174A00
:103500001A60174B18229A61154B4FF400725A61DA
:10351000FFF708FFFFF744FF1248FFF797FBFCF7A0
:10352000ADFE0B4A00211048FCF70EFF0A4A0021AD
:103530000E48FCF709FF084A00210D48FCF704FF7C
:10354000FCF7CEFEFEE700BF91340008B81900205A
:10355000BC1A002044380008E01A00205038000847
:10356000041B0020A41900207535000899350008B7
:10357000C935000880B582B000AF78600E220449DA
:103580000448FFF7AFFCC820FCF788FFF6E700BF50
:103590005C380008B819002080B582B000AF7860B0
:1035A000084B5B680133074A5360064B5B6842F285
:1035B0000F72934202D9034B00225A60C820FCF7D5
:1035C0006DFFEDE7A419002080B582B000AF7860F0
:1035D000094B1B69084A43F003031361C820FCF739
:1035E0005DFF054B5B69044A43F003035361C82048
:1035F000FCF754FFECE700BF0010014080B584B039
:1036000002AF786039607B68012B12D13B684FF6BE
:10361000FF7293420DD11048FFF7C4FA00230193C3
:1036200000230093002300224FF4FA610B48FFF7B8
:1036300047FB7B68002B0AD13B684FF6FF72934231
:1036400005D10648FFF71AFB0348FFF7DFFA00BF72
:103650000837BD4680BD00BFA4190020B81900205E
:1036600080B500AF4FF6FF710120FFF7C7FF80BDA7
:1036700080B500AF4FF6FF710020FFF7BFFF80BDA0
:1036800080B400AF154B1B68144A43F0010313606C
:10369000124B5A681149124B13404B600F4B1B6879
:1036A0000E4A23F0847323F4803313600B4B1B68A2
:1036B0000A4A23F480231360084B5B68074A23F40B
:1036C000FE035360054B4FF41F029A60054B4FF009
:1036D00000629A6000BFBD4680BC70470010024087
:1036E0000000FFF800ED00E000F000B800F024B8A2
:1036F00070B500250C4E0D4CA41BA410A54209D199
:1037000000F084F800250A4E0A4CA41BA410A54220
:1037100005D170BD56F8253098470135EEE756F8CB
:10372000253098470135F2E7A0380008A038000896
:10373000A0380008A8380008024B0146186800F0BD
:1037400017B800BF1800002010B5431E0A4491426C
:1037500000D110BD11F8014B03F8014FF7E7034604
:103760000244934200D1704703F8011BF9E70000BF
:1037700038B50546002943D051F8043C0C1F002BF6
:10378000B8BFE41800F040F81E4A1368104633B979
:10379000636014602846BDE8384000F036B8A342A4
:1037A0000BD921686218934201BF1A685B685218EE
:1037B000226063600460EDE713465A680AB1A242D2
:1037C000FAD919685818A0420BD12068014458183A
:1037D00082421960DED110685268014419605A6053
:1037E000D8E702D90C232B60D4E7206821188A423D
:1037F00001BF116852680918216062605C60C9E706
:1038000038BD00BF281B002070477047F8B500BFC7
:10381000F8BC08BC9E467047F8B500BFF8BC08BCB1
:043820009E46704709
:1038240049444C4500000000546D722053766300F7
:10383400546D7251000000002A2A2A2A2A2A382CA0
:103844006D795461736B3031000000006D795461FF
:10385400736B30320000000048656C6C6F20576F4A
:10386400726C64210D0A00000000000000000000DA
:103874000D2C00082D2C00080000000000000000A2
:103884007D2C00089D2C0008392D0008272E0008E7
:0C389400732E0008E52E0008AF3100087C
:0838A000150200086136000862
:0838A800F1010008713600086F
:1038B000AAAAAAAA0D0E131516191A1C2325262921
:1038C0002A2C323400127A001C0000200000000074
:1038D00000000000000000000000000000000000E8
:1038E00000000000000000000000000000000000D8
:1038F00000000000000000000000000000000000C8
:1039000000000000000000000000000000000000B7
:1039100000000000000000000000000000000000A7
:0C3920000000000000000000000000009B
:0400000508000231BC
:00000001FF
